{
  "contractName": "Dog",
  "abi": [
    {
      "inputs": [],
      "stateMutability": "nonpayable",
      "type": "constructor"
    },
    {
      "inputs": [],
      "name": "_initialized",
      "outputs": [
        {
          "internalType": "bool",
          "name": "",
          "type": "bool"
        }
      ],
      "stateMutability": "view",
      "type": "function"
    },
    {
      "inputs": [],
      "name": "owner",
      "outputs": [
        {
          "internalType": "address",
          "name": "",
          "type": "address"
        }
      ],
      "stateMutability": "view",
      "type": "function"
    },
    {
      "inputs": [],
      "name": "getNumberofDogs",
      "outputs": [
        {
          "internalType": "uint256",
          "name": "",
          "type": "uint256"
        }
      ],
      "stateMutability": "view",
      "type": "function"
    },
    {
      "inputs": [
        {
          "internalType": "uint256",
          "name": "toSet",
          "type": "uint256"
        }
      ],
      "name": "setNumberofDogs",
      "outputs": [],
      "stateMutability": "nonpayable",
      "type": "function"
    }
  ],
  "bytecode": "0x608060405234801561001057600080fd5b5033600560006101000a81548173ffffffffffffffffffffffffffffffffffffffff021916908373ffffffffffffffffffffffffffffffffffffffff16021790555061030d806100616000396000f3fe608060405234801561001057600080fd5b506004361061004c5760003560e01c80633072cf6014610051578063739034a71461006f5780638d3a66d81461008d5780638da5cb5b146100a9575b600080fd5b6100596100c7565b6040516100669190610162565b60405180910390f35b6100776100da565b6040516100849190610196565b60405180910390f35b6100a760048036038101906100a291906101e2565b6100fd565b005b6100b1610121565b6040516100be9190610250565b60405180910390f35b600560149054906101000a900460ff1681565b6000806040516100e9906102c2565b908152602001604051809103902054905090565b80600060405161010c906102c2565b90815260200160405180910390208190555050565b600560009054906101000a900473ffffffffffffffffffffffffffffffffffffffff1681565b60008115159050919050565b61015c81610147565b82525050565b60006020820190506101776000830184610153565b92915050565b6000819050919050565b6101908161017d565b82525050565b60006020820190506101ab6000830184610187565b92915050565b600080fd5b6101bf8161017d565b81146101ca57600080fd5b50565b6000813590506101dc816101b6565b92915050565b6000602082840312156101f8576101f76101b1565b5b6000610206848285016101cd565b91505092915050565b600073ffffffffffffffffffffffffffffffffffffffff82169050919050565b600061023a8261020f565b9050919050565b61024a8161022f565b82525050565b60006020820190506102656000830184610241565b92915050565b600081905092915050565b7f446f677300000000000000000000000000000000000000000000000000000000600082015250565b60006102ac60048361026b565b91506102b782610276565b600482019050919050565b60006102cd8261029f565b915081905091905056fea264697066735822122003bc9ae458f7931ef71d626c14a376f7bce5505c9fa153892c320069f835a03764736f6c634300080e0033",
  "immutableReferences": {},
  "source": "// SPDX-License-Identifier: MIT\npragma solidity >=0.4.22 <0.9.0;\n\n\nimport \"./Storage.sol\";\n\ncontract Dog is Storage {\n\n    modifier onlyOwner(){\n        require(msg.sender==owner,\"Can only be called by the owner\");\n        _;\n    }\n\n    constructor() {\n        owner = msg.sender;\n    }\n\n    function getNumberofDogs() public view returns(uint256){\n        return _uintStorage[\"Dogs\"];\n    }\n\n    function setNumberofDogs(uint256 toSet) public{\n        _uintStorage[\"Dogs\"] = toSet;\n    }\n}",
  "sourcePath": "/Users/karan/Documents/proxyContracts/contracts/Dogs.sol",
  "compiler": {
    "name": "solc",
    "version": "0.8.14+commit.80d49f37.Emscripten.clang"
  },
  "schemaVersion": "3.4.7",
  "updatedAt": "2022-10-25T21:14:46.311Z",
  "devdoc": {
    "kind": "dev",
    "methods": {},
    "version": 1
  },
  "userdoc": {
    "kind": "user",
    "methods": {},
    "version": 1
  }
}