{
  "contractName": "DogUpdated",
  "abi": [
    {
      "inputs": [],
      "stateMutability": "nonpayable",
      "type": "constructor"
    },
    {
      "inputs": [],
      "name": "_initialized",
      "outputs": [
        {
          "internalType": "bool",
          "name": "",
          "type": "bool"
        }
      ],
      "stateMutability": "view",
      "type": "function"
    },
    {
      "inputs": [],
      "name": "owner",
      "outputs": [
        {
          "internalType": "address",
          "name": "",
          "type": "address"
        }
      ],
      "stateMutability": "view",
      "type": "function"
    },
    {
      "inputs": [
        {
          "internalType": "address",
          "name": "_owner",
          "type": "address"
        }
      ],
      "name": "initialize",
      "outputs": [],
      "stateMutability": "nonpayable",
      "type": "function"
    },
    {
      "inputs": [],
      "name": "getNumberofDogs",
      "outputs": [
        {
          "internalType": "uint256",
          "name": "",
          "type": "uint256"
        }
      ],
      "stateMutability": "view",
      "type": "function"
    },
    {
      "inputs": [
        {
          "internalType": "uint256",
          "name": "toSet",
          "type": "uint256"
        }
      ],
      "name": "setNumberofDogs",
      "outputs": [],
      "stateMutability": "nonpayable",
      "type": "function"
    }
  ],
  "bytecode": "0x608060405234801561001057600080fd5b506100203361002560201b60201c565b61009e565b600560149054906101000a900460ff161561003f57600080fd5b80600560006101000a81548173ffffffffffffffffffffffffffffffffffffffff021916908373ffffffffffffffffffffffffffffffffffffffff1602179055506001600560146101000a81548160ff02191690831515021790555050565b610513806100ad6000396000f3fe608060405234801561001057600080fd5b50600436106100575760003560e01c80633072cf601461005c578063739034a71461007a5780638d3a66d8146100985780638da5cb5b146100b4578063c4d66de8146100d2575b600080fd5b6100646100ee565b6040516100719190610292565b60405180910390f35b610082610101565b60405161008f91906102c6565b60405180910390f35b6100b260048036038101906100ad9190610312565b610124565b005b6100bc6101d8565b6040516100c99190610380565b60405180910390f35b6100ec60048036038101906100e791906103c7565b6101fe565b005b600560149054906101000a900460ff1681565b6000806040516101109061044b565b908152602001604051809103902054905090565b600560009054906101000a900473ffffffffffffffffffffffffffffffffffffffff1673ffffffffffffffffffffffffffffffffffffffff163373ffffffffffffffffffffffffffffffffffffffff16146101b4576040517f08c379a00000000000000000000000000000000000000000000000000000000081526004016101ab906104bd565b60405180910390fd5b8060006040516101c39061044b565b90815260200160405180910390208190555050565b600560009054906101000a900473ffffffffffffffffffffffffffffffffffffffff1681565b600560149054906101000a900460ff161561021857600080fd5b80600560006101000a81548173ffffffffffffffffffffffffffffffffffffffff021916908373ffffffffffffffffffffffffffffffffffffffff1602179055506001600560146101000a81548160ff02191690831515021790555050565b60008115159050919050565b61028c81610277565b82525050565b60006020820190506102a76000830184610283565b92915050565b6000819050919050565b6102c0816102ad565b82525050565b60006020820190506102db60008301846102b7565b92915050565b600080fd5b6102ef816102ad565b81146102fa57600080fd5b50565b60008135905061030c816102e6565b92915050565b600060208284031215610328576103276102e1565b5b6000610336848285016102fd565b91505092915050565b600073ffffffffffffffffffffffffffffffffffffffff82169050919050565b600061036a8261033f565b9050919050565b61037a8161035f565b82525050565b60006020820190506103956000830184610371565b92915050565b6103a48161035f565b81146103af57600080fd5b50565b6000813590506103c18161039b565b92915050565b6000602082840312156103dd576103dc6102e1565b5b60006103eb848285016103b2565b91505092915050565b600081905092915050565b7f446f677300000000000000000000000000000000000000000000000000000000600082015250565b60006104356004836103f4565b9150610440826103ff565b600482019050919050565b600061045682610428565b9150819050919050565b600082825260208201905092915050565b7f43616e206f6e6c792062652063616c6c656420627920746865206f776e657200600082015250565b60006104a7601f83610460565b91506104b282610471565b602082019050919050565b600060208201905081810360008301526104d68161049a565b905091905056fea2646970667358221220a6deb635aa3088619acfa479ecd605584be4730668215714b1441c1d3aa0179464736f6c634300080e0033",
  "immutableReferences": {},
  "source": "// SPDX-License-Identifier: MIT\npragma solidity >=0.4.22 <0.9.0;\n\n\nimport \"./Storage.sol\";\n\ncontract DogUpdated is Storage {\n\n    modifier onlyOwner(){\n        require(msg.sender==owner,\"Can only be called by the owner\");\n        _;\n    }\n\n    constructor() {\n        initialize(msg.sender);\n    }\n\n    function initialize(address _owner) public{\n        require(!_initialized);\n        owner = _owner;\n        _initialized = true;\n    }\n\n    function getNumberofDogs() public view returns(uint256){\n        return _uintStorage[\"Dogs\"];\n    }\n\n    function setNumberofDogs(uint256 toSet) public onlyOwner(){\n        _uintStorage[\"Dogs\"] = toSet;\n    }\n}",
  "sourcePath": "/Users/karan/Documents/proxyContracts/contracts/DogsUpdated.sol",
  "compiler": {
    "name": "solc",
    "version": "0.8.14+commit.80d49f37.Emscripten.clang"
  },
  "schemaVersion": "3.4.7",
  "updatedAt": "2022-10-25T21:28:20.583Z",
  "devdoc": {
    "kind": "dev",
    "methods": {},
    "version": 1
  },
  "userdoc": {
    "kind": "user",
    "methods": {},
    "version": 1
  }
}